{
  "_format": "hh-sol-artifact-1",
  "contractName": "Employee",
  "sourceName": "contracts/Employee.sol",
  "abi": [
    {
      "inputs": [],
      "stateMutability": "nonpayable",
      "type": "constructor"
    },
    {
      "anonymous": false,
      "inputs": [
        {
          "indexed": false,
          "internalType": "string",
          "name": "departmentName",
          "type": "string"
        }
      ],
      "name": "DepartmentAdded",
      "type": "event"
    },
    {
      "anonymous": false,
      "inputs": [
        {
          "indexed": false,
          "internalType": "string",
          "name": "departmentName",
          "type": "string"
        }
      ],
      "name": "DepartmentRemoved",
      "type": "event"
    },
    {
      "anonymous": false,
      "inputs": [
        {
          "indexed": false,
          "internalType": "string",
          "name": "name",
          "type": "string"
        },
        {
          "indexed": false,
          "internalType": "string",
          "name": "department",
          "type": "string"
        },
        {
          "indexed": false,
          "internalType": "uint256",
          "name": "salary",
          "type": "uint256"
        },
        {
          "indexed": false,
          "internalType": "uint256",
          "name": "timestamp",
          "type": "uint256"
        }
      ],
      "name": "EmployeeCreated",
      "type": "event"
    },
    {
      "anonymous": false,
      "inputs": [
        {
          "indexed": false,
          "internalType": "address",
          "name": "owner",
          "type": "address"
        },
        {
          "indexed": false,
          "internalType": "uint256",
          "name": "amount",
          "type": "uint256"
        }
      ],
      "name": "FundsWithdrawn",
      "type": "event"
    },
    {
      "anonymous": false,
      "inputs": [
        {
          "indexed": false,
          "internalType": "string",
          "name": "employeeName",
          "type": "string"
        },
        {
          "indexed": false,
          "internalType": "uint256",
          "name": "oldSalary",
          "type": "uint256"
        },
        {
          "indexed": false,
          "internalType": "uint256",
          "name": "newSalary",
          "type": "uint256"
        }
      ],
      "name": "SalaryUpdated",
      "type": "event"
    },
    {
      "inputs": [
        {
          "internalType": "string",
          "name": "name",
          "type": "string"
        }
      ],
      "name": "addDepartment",
      "outputs": [],
      "stateMutability": "nonpayable",
      "type": "function"
    },
    {
      "inputs": [
        {
          "internalType": "string",
          "name": "name",
          "type": "string"
        },
        {
          "internalType": "string",
          "name": "message",
          "type": "string"
        }
      ],
      "name": "buyChai",
      "outputs": [],
      "stateMutability": "payable",
      "type": "function"
    },
    {
      "inputs": [
        {
          "internalType": "string",
          "name": "name",
          "type": "string"
        },
        {
          "internalType": "string",
          "name": "department",
          "type": "string"
        },
        {
          "internalType": "uint256",
          "name": "salary",
          "type": "uint256"
        }
      ],
      "name": "createEmployee",
      "outputs": [],
      "stateMutability": "payable",
      "type": "function"
    },
    {
      "inputs": [],
      "name": "getDepartment",
      "outputs": [
        {
          "components": [
            {
              "internalType": "string",
              "name": "name",
              "type": "string"
            }
          ],
          "internalType": "struct Employee.Department[]",
          "name": "",
          "type": "tuple[]"
        }
      ],
      "stateMutability": "view",
      "type": "function"
    },
    {
      "inputs": [],
      "name": "getEmployees",
      "outputs": [
        {
          "components": [
            {
              "internalType": "string",
              "name": "name",
              "type": "string"
            },
            {
              "internalType": "uint256",
              "name": "salary",
              "type": "uint256"
            },
            {
              "internalType": "string",
              "name": "department",
              "type": "string"
            },
            {
              "internalType": "uint256",
              "name": "timestamp",
              "type": "uint256"
            }
          ],
          "internalType": "struct Employee.Employee[]",
          "name": "",
          "type": "tuple[]"
        }
      ],
      "stateMutability": "view",
      "type": "function"
    },
    {
      "inputs": [],
      "name": "getMemos",
      "outputs": [
        {
          "components": [
            {
              "internalType": "string",
              "name": "name",
              "type": "string"
            },
            {
              "internalType": "string",
              "name": "message",
              "type": "string"
            },
            {
              "internalType": "uint256",
              "name": "timestamp",
              "type": "uint256"
            },
            {
              "internalType": "address",
              "name": "from",
              "type": "address"
            }
          ],
          "internalType": "struct Employee.Memo[]",
          "name": "",
          "type": "tuple[]"
        }
      ],
      "stateMutability": "view",
      "type": "function"
    },
    {
      "inputs": [
        {
          "internalType": "string",
          "name": "name",
          "type": "string"
        }
      ],
      "name": "removeDepartment",
      "outputs": [],
      "stateMutability": "nonpayable",
      "type": "function"
    },
    {
      "inputs": [
        {
          "internalType": "uint256",
          "name": "employeeIndex",
          "type": "uint256"
        },
        {
          "internalType": "uint256",
          "name": "newSalary",
          "type": "uint256"
        }
      ],
      "name": "updateSalary",
      "outputs": [],
      "stateMutability": "nonpayable",
      "type": "function"
    },
    {
      "inputs": [
        {
          "internalType": "uint256",
          "name": "amount",
          "type": "uint256"
        }
      ],
      "name": "withdrawFunds",
      "outputs": [],
      "stateMutability": "nonpayable",
      "type": "function"
    }
  ],
  "bytecode": "0x60806040523480156200001157600080fd5b5033600360006101000a81548173ffffffffffffffffffffffffffffffffffffffff021916908373ffffffffffffffffffffffffffffffffffffffff160217905550600060405180602001604052806040518060400160405280600281526020017f4954000000000000000000000000000000000000000000000000000000000000815250815250908060018154018082558091505060019003906000526020600020016000909190919091506000820151816000019081620000d59190620004e7565b505050600060405180602001604052806040518060400160405280600481526020017f4d617468000000000000000000000000000000000000000000000000000000008152508152509080600181540180825580915050600190039060005260206000200160009091909190915060008201518160000190816200015a9190620004e7565b505050600060405180602001604052806040518060400160405280600581526020017f53706f7274000000000000000000000000000000000000000000000000000000815250815250908060018154018082558091505060019003906000526020600020016000909190919091506000820151816000019081620001df9190620004e7565b505050600060405180602001604052806040518060400160405280600781526020017f486973746f727900000000000000000000000000000000000000000000000000815250815250908060018154018082558091505060019003906000526020600020016000909190919091506000820151816000019081620002649190620004e7565b505050620005ce565b600081519050919050565b7f4e487b7100000000000000000000000000000000000000000000000000000000600052604160045260246000fd5b7f4e487b7100000000000000000000000000000000000000000000000000000000600052602260045260246000fd5b60006002820490506001821680620002ef57607f821691505b602082108103620003055762000304620002a7565b5b50919050565b60008190508160005260206000209050919050565b60006020601f8301049050919050565b600082821b905092915050565b6000600883026200036f7fffffffffffffffffffffffffffffffffffffffffffffffffffffffffffffffff8262000330565b6200037b868362000330565b95508019841693508086168417925050509392505050565b6000819050919050565b6000819050919050565b6000620003c8620003c2620003bc8462000393565b6200039d565b62000393565b9050919050565b6000819050919050565b620003e483620003a7565b620003fc620003f382620003cf565b8484546200033d565b825550505050565b600090565b6200041362000404565b62000420818484620003d9565b505050565b5b8181101562000448576200043c60008262000409565b60018101905062000426565b5050565b601f821115620004975762000461816200030b565b6200046c8462000320565b810160208510156200047c578190505b620004946200048b8562000320565b83018262000425565b50505b505050565b600082821c905092915050565b6000620004bc600019846008026200049c565b1980831691505092915050565b6000620004d78383620004a9565b9150826002028217905092915050565b620004f2826200026d565b67ffffffffffffffff8111156200050e576200050d62000278565b5b6200051a8254620002d6565b620005278282856200044c565b600060209050601f8311600181146200055f57600084156200054a578287015190505b620005568582620004c9565b865550620005c6565b601f1984166200056f866200030b565b60005b82811015620005995784890151825560018201915060208501945060208101905062000572565b86831015620005b95784890151620005b5601f891682620004a9565b8355505b6001600288020188555050505b505050505050565b61260180620005de6000396000f3fe6080604052600436106100865760003560e01c80635e4af8f6116100595780635e4af8f6146101335780636a13d8591461015c578063865c517214610178578063b2fc015f146101a3578063bbae109a146101cc57610086565b8063155dd5ee1461008b57806327d20665146100b457806344bf3490146100df5780634abefa3614610108575b600080fd5b34801561009757600080fd5b506100b260048036038101906100ad919061133d565b6101e8565b005b3480156100c057600080fd5b506100c9610382565b6040516100d691906114e6565b60405180910390f35b3480156100eb57600080fd5b506101066004803603810190610101919061156d565b61046f565b005b34801561011457600080fd5b5061011d6106e0565b60405161012a91906116f5565b60405180910390f35b34801561013f57600080fd5b5061015a60048036038101906101559190611717565b610877565b005b61017660048036038101906101719190611757565b610a0d565b005b34801561018457600080fd5b5061018d610c28565b60405161019a9190611945565b60405180910390f35b3480156101af57600080fd5b506101ca60048036038101906101c5919061156d565b610e0b565b005b6101e660048036038101906101e19190611967565b610fb0565b005b600360009054906101000a900473ffffffffffffffffffffffffffffffffffffffff1673ffffffffffffffffffffffffffffffffffffffff163373ffffffffffffffffffffffffffffffffffffffff1614610278576040517f08c379a000000000000000000000000000000000000000000000000000000000815260040161026f90611a7f565b60405180910390fd5b478111156102bb576040517f08c379a00000000000000000000000000000000000000000000000000000000081526004016102b290611aeb565b60405180910390fd5b600360009054906101000a900473ffffffffffffffffffffffffffffffffffffffff1673ffffffffffffffffffffffffffffffffffffffff166108fc829081150290604051600060405180830381858888f19350505050158015610323573d6000803e3d6000fd5b507feaff4b37086828766ad3268786972c0cd24259d4c87a80f9d3963a3c3d999b0d600360009054906101000a900473ffffffffffffffffffffffffffffffffffffffff1682604051610377929190611b79565b60405180910390a150565b60606000805480602002602001604051908101604052809291908181526020016000905b82821015610466578382906000526020600020016040518060200160405290816000820180546103d590611bd1565b80601f016020809104026020016040519081016040528092919081815260200182805461040190611bd1565b801561044e5780601f106104235761010080835404028352916020019161044e565b820191906000526020600020905b81548152906001019060200180831161043157829003601f168201915b505050505081525050815260200190600101906103a6565b50505050905090565b600360009054906101000a900473ffffffffffffffffffffffffffffffffffffffff1673ffffffffffffffffffffffffffffffffffffffff163373ffffffffffffffffffffffffffffffffffffffff16146104ff576040517f08c379a00000000000000000000000000000000000000000000000000000000081526004016104f690611a7f565b60405180910390fd5b61054c82828080601f016020809104026020016040519081016040528093929190818152602001838380828437600081840152601f19601f82011690508083019250505050505050611220565b61058b576040517f08c379a000000000000000000000000000000000000000000000000000000000815260040161058290611c4e565b60405180910390fd5b60005b6000805490508110156106db5782826040516105ab929190611cad565b6040518091039020600082815481106105c7576105c6611cc6565b5b906000526020600020016000016040516105e19190611d8d565b6040518091039020036106c857600060016000805490506106029190611dd3565b8154811061061357610612611cc6565b5b906000526020600020016000828154811061063157610630611cc6565b5b906000526020600020016000820181600001908161064f9190611fee565b509050506000805480610665576106646120d6565b5b600190038181906000526020600020016000808201600061068691906112a0565b505090557f64f4df66e4c1ac0467ffab7ea905ff352188486c6bb4307bea1bf40c33309d7783836040516106bb929190612132565b60405180910390a16106db565b80806106d390612156565b91505061058e565b505050565b60606002805480602002602001604051908101604052809291908181526020016000905b8282101561086e578382906000526020600020906004020160405180608001604052908160008201805461073790611bd1565b80601f016020809104026020016040519081016040528092919081815260200182805461076390611bd1565b80156107b05780601f10610785576101008083540402835291602001916107b0565b820191906000526020600020905b81548152906001019060200180831161079357829003601f168201915b50505050508152602001600182015481526020016002820180546107d390611bd1565b80601f01602080910402602001604051908101604052809291908181526020018280546107ff90611bd1565b801561084c5780601f106108215761010080835404028352916020019161084c565b820191906000526020600020905b81548152906001019060200180831161082f57829003601f168201915b5050505050815260200160038201548152505081526020019060010190610704565b50505050905090565b600360009054906101000a900473ffffffffffffffffffffffffffffffffffffffff1673ffffffffffffffffffffffffffffffffffffffff163373ffffffffffffffffffffffffffffffffffffffff1614610907576040517f08c379a00000000000000000000000000000000000000000000000000000000081526004016108fe90611a7f565b60405180910390fd5b600280549050821061094e576040517f08c379a0000000000000000000000000000000000000000000000000000000008152600401610945906121ea565b60405180910390fd5b60008111610991576040517f08c379a00000000000000000000000000000000000000000000000000000000081526004016109889061227c565b60405180910390fd5b6000600283815481106109a7576109a6611cc6565b5b906000526020600020906004020190506000816001015490508282600101819055507f7354f4ddbc273378f140c257d4ab0b4881ab82f9e59bb59969f7cdef6cdcd3198260000182856040516109ff93929190612320565b60405180910390a150505050565b60003411610a50576040517f08c379a0000000000000000000000000000000000000000000000000000000008152600401610a47906123aa565b60405180910390fd5b600360009054906101000a900473ffffffffffffffffffffffffffffffffffffffff1673ffffffffffffffffffffffffffffffffffffffff166108fc349081150290604051600060405180830381858888f19350505050158015610ab8573d6000803e3d6000fd5b506001604051806080016040528086868080601f016020809104026020016040519081016040528093929190818152602001838380828437600081840152601f19601f82011690508083019250505050505050815260200184848080601f016020809104026020016040519081016040528093929190818152602001838380828437600081840152601f19601f8201169050808301925050505050505081526020014281526020013373ffffffffffffffffffffffffffffffffffffffff1681525090806001815401808255809150506001900390600052602060002090600402016000909190919091506000820151816000019081610bb891906123ca565b506020820151816001019081610bce91906123ca565b506040820151816002015560608201518160030160006101000a81548173ffffffffffffffffffffffffffffffffffffffff021916908373ffffffffffffffffffffffffffffffffffffffff160217905550505050505050565b60606001805480602002602001604051908101604052809291908181526020016000905b82821015610e025783829060005260206000209060040201604051806080016040529081600082018054610c7f90611bd1565b80601f0160208091040260200160405190810160405280929190818152602001828054610cab90611bd1565b8015610cf85780601f10610ccd57610100808354040283529160200191610cf8565b820191906000526020600020905b815481529060010190602001808311610cdb57829003601f168201915b50505050508152602001600182018054610d1190611bd1565b80601f0160208091040260200160405190810160405280929190818152602001828054610d3d90611bd1565b8015610d8a5780601f10610d5f57610100808354040283529160200191610d8a565b820191906000526020600020905b815481529060010190602001808311610d6d57829003601f168201915b50505050508152602001600282015481526020016003820160009054906101000a900473ffffffffffffffffffffffffffffffffffffffff1673ffffffffffffffffffffffffffffffffffffffff1673ffffffffffffffffffffffffffffffffffffffff168152505081526020019060010190610c4c565b50505050905090565b600360009054906101000a900473ffffffffffffffffffffffffffffffffffffffff1673ffffffffffffffffffffffffffffffffffffffff163373ffffffffffffffffffffffffffffffffffffffff1614610e9b576040517f08c379a0000000000000000000000000000000000000000000000000000000008152600401610e9290611a7f565b60405180910390fd5b60008282905011610ee1576040517f08c379a0000000000000000000000000000000000000000000000000000000008152600401610ed8906124e8565b60405180910390fd5b6000604051806020016040528084848080601f016020809104026020016040519081016040528093929190818152602001838380828437600081840152601f19601f82011690508083019250505050505050815250908060018154018082558091505060019003906000526020600020016000909190919091506000820151816000019081610f7091906123ca565b5050507f799b2a61208c85186bb01871106aca03f37142d80101908019e229478f5bddbc8282604051610fa4929190612132565b60405180910390a15050565b60003411610ff3576040517f08c379a0000000000000000000000000000000000000000000000000000000008152600401610fea906123aa565b60405180910390fd5b60008111611036576040517f08c379a000000000000000000000000000000000000000000000000000000000815260040161102d90612554565b60405180910390fd5b61108383838080601f016020809104026020016040519081016040528093929190818152602001838380828437600081840152601f19601f82011690508083019250505050505050611220565b6110c2576040517f08c379a00000000000000000000000000000000000000000000000000000000081526004016110b990611c4e565b60405180910390fd5b6002604051806080016040528087878080601f016020809104026020016040519081016040528093929190818152602001838380828437600081840152601f19601f82011690508083019250505050505050815260200183815260200185858080601f016020809104026020016040519081016040528093929190818152602001838380828437600081840152601f19601f82011690508083019250505050505050815260200142815250908060018154018082558091505060019003906000526020600020906004020160009091909190915060008201518160000190816111ab91906123ca565b506020820151816001015560408201518160020190816111cb91906123ca565b506060820151816003015550507f8a97e6c97d60319d7e3ccce54f5250b46ea7b3e7c5f1b1e69f212547aacdc94285858585854260405161121196959493929190612574565b60405180910390a15050505050565b600080600090505b6000805490508110156112955782805190602001206000828154811061125157611250611cc6565b5b9060005260206000200160000160405161126b9190611d8d565b60405180910390200361128257600191505061129b565b808061128d90612156565b915050611228565b50600090505b919050565b5080546112ac90611bd1565b6000825580601f106112be57506112dd565b601f0160209004906000526020600020908101906112dc91906112e0565b5b50565b5b808211156112f95760008160009055506001016112e1565b5090565b600080fd5b600080fd5b6000819050919050565b61131a81611307565b811461132557600080fd5b50565b60008135905061133781611311565b92915050565b600060208284031215611353576113526112fd565b5b600061136184828501611328565b91505092915050565b600081519050919050565b600082825260208201905092915050565b6000819050602082019050919050565b600081519050919050565b600082825260208201905092915050565b60005b838110156113d05780820151818401526020810190506113b5565b60008484015250505050565b6000601f19601f8301169050919050565b60006113f882611396565b61140281856113a1565b93506114128185602086016113b2565b61141b816113dc565b840191505092915050565b6000602083016000830151848203600086015261144382826113ed565b9150508091505092915050565b600061145c8383611426565b905092915050565b6000602082019050919050565b600061147c8261136a565b6114868185611375565b93508360208202850161149885611386565b8060005b858110156114d457848403895281516114b58582611450565b94506114c083611464565b925060208a0199505060018101905061149c565b50829750879550505050505092915050565b600060208201905081810360008301526115008184611471565b905092915050565b600080fd5b600080fd5b600080fd5b60008083601f84011261152d5761152c611508565b5b8235905067ffffffffffffffff81111561154a5761154961150d565b5b60208301915083600182028301111561156657611565611512565b5b9250929050565b60008060208385031215611584576115836112fd565b5b600083013567ffffffffffffffff8111156115a2576115a1611302565b5b6115ae85828601611517565b92509250509250929050565b600081519050919050565b600082825260208201905092915050565b6000819050602082019050919050565b6115ef81611307565b82525050565b6000608083016000830151848203600086015261161282826113ed565b915050602083015161162760208601826115e6565b506040830151848203604086015261163f82826113ed565b915050606083015161165460608601826115e6565b508091505092915050565b600061166b83836115f5565b905092915050565b6000602082019050919050565b600061168b826115ba565b61169581856115c5565b9350836020820285016116a7856115d6565b8060005b858110156116e357848403895281516116c4858261165f565b94506116cf83611673565b925060208a019950506001810190506116ab565b50829750879550505050505092915050565b6000602082019050818103600083015261170f8184611680565b905092915050565b6000806040838503121561172e5761172d6112fd565b5b600061173c85828601611328565b925050602061174d85828601611328565b9150509250929050565b60008060008060408587031215611771576117706112fd565b5b600085013567ffffffffffffffff81111561178f5761178e611302565b5b61179b87828801611517565b9450945050602085013567ffffffffffffffff8111156117be576117bd611302565b5b6117ca87828801611517565b925092505092959194509250565b600081519050919050565b600082825260208201905092915050565b6000819050602082019050919050565b600073ffffffffffffffffffffffffffffffffffffffff82169050919050565b600061182f82611804565b9050919050565b61183f81611824565b82525050565b6000608083016000830151848203600086015261186282826113ed565b9150506020830151848203602086015261187c82826113ed565b915050604083015161189160408601826115e6565b5060608301516118a46060860182611836565b508091505092915050565b60006118bb8383611845565b905092915050565b6000602082019050919050565b60006118db826117d8565b6118e581856117e3565b9350836020820285016118f7856117f4565b8060005b85811015611933578484038952815161191485826118af565b945061191f836118c3565b925060208a019950506001810190506118fb565b50829750879550505050505092915050565b6000602082019050818103600083015261195f81846118d0565b905092915050565b600080600080600060608688031215611983576119826112fd565b5b600086013567ffffffffffffffff8111156119a1576119a0611302565b5b6119ad88828901611517565b9550955050602086013567ffffffffffffffff8111156119d0576119cf611302565b5b6119dc88828901611517565b935093505060406119ef88828901611328565b9150509295509295909350565b600082825260208201905092915050565b7f4f6e6c79206f776e65722063616e2063616c6c20746869732066756e6374696f60008201527f6e00000000000000000000000000000000000000000000000000000000000000602082015250565b6000611a696021836119fc565b9150611a7482611a0d565b604082019050919050565b60006020820190508181036000830152611a9881611a5c565b9050919050565b7f496e73756666696369656e7420636f6e74726163742062616c616e6365000000600082015250565b6000611ad5601d836119fc565b9150611ae082611a9f565b602082019050919050565b60006020820190508181036000830152611b0481611ac8565b9050919050565b6000819050919050565b6000611b30611b2b611b2684611804565b611b0b565b611804565b9050919050565b6000611b4282611b15565b9050919050565b6000611b5482611b37565b9050919050565b611b6481611b49565b82525050565b611b7381611307565b82525050565b6000604082019050611b8e6000830185611b5b565b611b9b6020830184611b6a565b9392505050565b7f4e487b7100000000000000000000000000000000000000000000000000000000600052602260045260246000fd5b60006002820490506001821680611be957607f821691505b602082108103611bfc57611bfb611ba2565b5b50919050565b7f496e76616c6964206465706172746d656e740000000000000000000000000000600082015250565b6000611c386012836119fc565b9150611c4382611c02565b602082019050919050565b60006020820190508181036000830152611c6781611c2b565b9050919050565b600081905092915050565b82818337600083830152505050565b6000611c948385611c6e565b9350611ca1838584611c79565b82840190509392505050565b6000611cba828486611c88565b91508190509392505050565b7f4e487b7100000000000000000000000000000000000000000000000000000000600052603260045260246000fd5b60008190508160005260206000209050919050565b60008154611d1781611bd1565b611d218186611c6e565b94506001821660008114611d3c5760018114611d5157611d84565b60ff1983168652811515820286019350611d84565b611d5a85611cf5565b60005b83811015611d7c57815481890152600182019150602081019050611d5d565b838801955050505b50505092915050565b6000611d998284611d0a565b915081905092915050565b7f4e487b7100000000000000000000000000000000000000000000000000000000600052601160045260246000fd5b6000611dde82611307565b9150611de983611307565b9250828203905081811115611e0157611e00611da4565b5b92915050565b600081549050611e1681611bd1565b9050919050565b7f4e487b7100000000000000000000000000000000000000000000000000000000600052604160045260246000fd5b60008190508160005260206000209050919050565b60006020601f8301049050919050565b600082821b905092915050565b600060088302611eae7fffffffffffffffffffffffffffffffffffffffffffffffffffffffffffffffff82611e71565b611eb88683611e71565b95508019841693508086168417925050509392505050565b6000611eeb611ee6611ee184611307565b611b0b565b611307565b9050919050565b6000819050919050565b611f0583611ed0565b611f19611f1182611ef2565b848454611e7e565b825550505050565b600090565b611f2e611f21565b611f39818484611efc565b505050565b5b81811015611f5d57611f52600082611f26565b600181019050611f3f565b5050565b601f821115611fa257611f7381611e4c565b611f7c84611e61565b81016020851015611f8b578190505b611f9f611f9785611e61565b830182611f3e565b50505b505050565b600082821c905092915050565b6000611fc560001984600802611fa7565b1980831691505092915050565b6000611fde8383611fb4565b9150826002028217905092915050565b818103611ffc5750506120d4565b61200582611e07565b67ffffffffffffffff81111561201e5761201d611e1d565b5b6120288254611bd1565b612033828285611f61565b6000601f8311600181146120625760008415612050578287015490505b61205a8582611fd2565b8655506120cd565b601f19841661207087611e4c565b965061207b86611e4c565b60005b828110156120a35784890154825560018201915060018501945060208101905061207e565b868310156120c057848901546120bc601f891682611fb4565b8355505b6001600288020188555050505b5050505050505b565b7f4e487b7100000000000000000000000000000000000000000000000000000000600052603160045260246000fd5b600061211183856119fc565b935061211e838584611c79565b612127836113dc565b840190509392505050565b6000602082019050818103600083015261214d818486612105565b90509392505050565b600061216182611307565b91507fffffffffffffffffffffffffffffffffffffffffffffffffffffffffffffffff820361219357612192611da4565b5b600182019050919050565b7f496e76616c696420656d706c6f79656520696e64657800000000000000000000600082015250565b60006121d46016836119fc565b91506121df8261219e565b602082019050919050565b60006020820190508181036000830152612203816121c7565b9050919050565b7f4e65772073616c617279206d7573742062652067726561746572207468616e2060008201527f3000000000000000000000000000000000000000000000000000000000000000602082015250565b60006122666021836119fc565b91506122718261220a565b604082019050919050565b6000602082019050818103600083015261229581612259565b9050919050565b600081546122a981611bd1565b6122b381866119fc565b945060018216600081146122ce57600181146122e457612317565b60ff198316865281151560200286019350612317565b6122ed85611e4c565b60005b8381101561230f578154818901526001820191506020810190506122f0565b808801955050505b50505092915050565b6000606082019050818103600083015261233a818661229c565b90506123496020830185611b6a565b6123566040830184611b6a565b949350505050565b7f506c6561736520706179206d6f7265207468616e203020657468657200000000600082015250565b6000612394601c836119fc565b915061239f8261235e565b602082019050919050565b600060208201905081810360008301526123c381612387565b9050919050565b6123d382611396565b67ffffffffffffffff8111156123ec576123eb611e1d565b5b6123f68254611bd1565b612401828285611f61565b600060209050601f8311600181146124345760008415612422578287015190505b61242c8582611fd2565b865550612494565b601f19841661244286611e4c565b60005b8281101561246a57848901518255600182019150602085019450602081019050612445565b868310156124875784890151612483601f891682611fb4565b8355505b6001600288020188555050505b505050505050565b7f4465706172746d656e74206e616d652063616e6e6f7420626520656d70747900600082015250565b60006124d2601f836119fc565b91506124dd8261249c565b602082019050919050565b60006020820190508181036000830152612501816124c5565b9050919050565b7f53616c617279206d7573742062652067726561746572207468616e2030000000600082015250565b600061253e601d836119fc565b915061254982612508565b602082019050919050565b6000602082019050818103600083015261256d81612531565b9050919050565b6000608082019050818103600083015261258f81888a612105565b905081810360208301526125a4818688612105565b90506125b36040830185611b6a565b6125c06060830184611b6a565b97965050505050505056fea2646970667358221220f476adca53f6dbdc57b55ae241d06d20906782b24339eddc48d5c5664f76c0cb64736f6c63430008110033",
  "linkReferences": {},
  "deployedLinkReferences": {}
}